:10000000BDEF00F03000EA6A100EE96EEF50D8B490
:1000100018EF00F0010E016E006A002EFED7012ECF
:10002000FBD74A0E006E002EFED700D0EF2EF2D77F
:10003000E6EF00F011501302F3CF01F0F4CF00F01F
:100040001402F350002612501302F3500020026EE7
:1000500012001650016A155C03E215C000F00CD0C6
:10006000006A080E176E153600361650005CD8B0C0
:10007000006E0136172EF7D7120011C015F00A0EC8
:10008000166EE7DF01C015F00A0E166EE2DF0038CB
:10009000126EF00E121611C015F00A0E166ED9DF90
:1000A00000501224016E05EF01F0200E10A8300E52
:1000B000116E0FC000F00FAE08D0001E002A00C065
:1000C0000FF02D0E116E108E108001500FC015F024
:1000D000640E166EBEDF00C00FF0300E0124126EEB
:1000E0000FC015F00A0E166EB4DF300E0024146E29
:1000F000300E0124136E11C000F0300E125C04E0CB
:10010000108210BE108412D011C012F0200E116E99
:10011000300E135C04E0108010BE108207D0D8A40B
:10012000108004E112C013F0200E126E10B405D03E
:1001300010B207D010B009D00CD011509EA8FED735
:10014000AD6E12509EA8FED7AD6E13509EA8FED77E
:10015000AD6E14509EA8FED7AD6E2FEF01F010507B
:100160000F5C05E38A8293928A90939004D08A80F0
:1001700093908A92939234EF01F0F86AD09E810EA8
:10018000AF6EA60EAC6E900EAB6EC180C182C18404
:10019000C196070EB46E046A056AC190C182C1841B
:1001A000C186C19CC29CC28EC18EC280000E016EEF
:1001B000C250C70B0110C26E9D8AC00EF212230EF0
:1001C0000B6E020E0F6EFA0E106E1DD70F2EFBD7A0
:1001D000C284C2B4FED7C4CF03F0C3CF0FF0C4CFE4
:1001E00010F0C4CF12F0C3CF11F0146A640E136E76
:1001F00021DF02C00FF0106A10320F3210320F32BE
:100200003F0E10160FC011F038D701C00DF0C28498
:10021000C2B4FED7C4CF03F0C3CF0FF0C4CF10F0E9
:10022000C4CF12F0C3CF11F0146A640E136E02DF54
:1002300002C010F00230026E02323F0E021602C0FF
:100240000EF0000E016EC250C70B0110C26E956A0F
:100250000DC08CFF0EC00FF0180E106E26D70EC00A
:0C0260000FF00BC010F07BD7ACD70300F0
:020000040030CA
:0E00000000220E0E000081000FC00FE00F4026
:00000001FF
;PIC18F458
;CRC=4987  CREATED="10-mai-17 12:39"
